S02A00006D6F683030385F6C6162375F70617274315F4D6963726F636F6E74726F6C6C6572322E7372656343
S113000045C0000060C000005EC000005CC000008D
S11300105AC0000058C0000056C0000054C0000080
S113002052C0000050C000004EC000004CC0000090
S11300304AC00000D6C0000046C0000044C0000012
S113004042C0000040C000003EC000003CC00000B0
S11300503AC0000038C0000036C0000034C00000C0
S113006032C0000030C000002EC000002CC00000D0
S11300702AC0000028C0000026C0000024C00000E0
S113008022C0000020C000001EC0000011241FBEBA
S1130090CFEFD0E4DEBFCDBF11E0A0E0B1E0EEE0F1
S11300A0F3E000E00BBF02C007900D92AA30B10745
S11300B0D9F721E0AAE0B1E001C01D92AF30B20748
S11300C0E1F7D2D022C19CCF181619065CF008952E
S11300D0000021503109E1F74F5F5F4F8417950706
S11300E019F4089540E050E027E033E0F1CF5E9842
S11300F088B95F9A00005F9882E090E0E5CF0895A8
S113010081E0F5CF089584E690E0DEDF88E3EFDF59
S113011086E0EDDF8FE0EBDF81E0E9DF8AE090E06D
S1130120D3CF08955E9A88B95F9A00005F9881E002
S113013090E0CACF0895813118F48158D8CF08953A
S11301408155D5CF08950F931F93CF93DF93182F25
S1130150EB01D6DF8881882351F001E0010F812F64
S1130160EADF8991DFDF102F88818111F6CFDF91DB
S1130170CF911F910F910895609300017093010135
S1130180809302019093030160930A0170930B0121
S113019080930C0190930D0108958BE0809381006E
S11301A08DE790E0909389008093880082E08093AB
S11301B06F0010928500109284008091000190914C
S11301C00101A0910201B091030180930A0190936F
S11301D00B01A0930C01B0930D018FB780688FBF02
S11301E008951F920F920FB60F9211248F939F932D
S11301F0AF93BF9380910A0190910B01A0910C01E0
S1130200B0910D010197A109B10980930A0190935E
S11302100B01A0930C01B0930D01892B8A2B8B2B1E
S113022099F481E080930E01809100019091010185
S1130230A0910201B091030180930A0190930B01F4
S1130240A0930C01B0930D01BF91AF919F918F9139
S11302500F900FBE0F901F90189580E484B980EC26
S11302608CBD80E88FBF08958FEF87B918B88AB91D
S11302701BB8F3DF48DF91DF6CE271E080E090E0CF
S11302807BDF0DEC0F2EF9E2FF2EF02DDEB5CEB59F
S1130290C09FC12D1124C695C695C6951EB564E0B0
S11302A071E081E050DF85E046DFDF9D812D112480
S11302B082958F70805D36DF86E03DDFC09F912D93
S11302C01124969596959695990F892F880F880FE6
S11302D0980F8C2F891B805D25DF87E02CDF109F12
S11302E0912D1124969596959695990F892F880F9F
S11302F0880F980F812F891B805D14DF80910E0178
S11103008823E1F310920E01C1CFF894FFCFD1
S10D030E010000004176673A200068
S9030000FC
