S02A00006D6F683030385F6C6162375F70617274325F4D6963726F636F6E74726F6C6C6572322E7372656342
S113000045C0000060C000005EC000005CC000008D
S11300105AC0000058C0000056C0000054C0000080
S113002052C0000050C000004EC000004CC0000090
S11300304AC00000D6C0000046C0000044C0000012
S113004042C0000040C000003EC000000DC10000DE
S11300503AC0000038C0000036C0000034C00000C0
S113006032C0000030C000002EC000002CC00000D0
S11300702AC0000028C0000026C0000024C00000E0
S113008022C0000020C000001EC0000011241FBEBA
S1130090CFEFD0E4DEBFCDBF11E0A0E0B1E0E0EAF5
S11300A0F3E000E00BBF02C007900D92AA31B10744
S11300B0D9F721E0AAE1B1E001C01D92A132B20753
S11300C0E1F7EBD06BC19CCF181619065CF00895CC
S11300D0000021503109E1F74F5F5F4F8417950706
S11300E019F4089540E050E027E033E0F1CF5E9842
S11300F088B95F9A00005F9882E090E0E5CF0895A8
S113010081E0F5CF089584E690E0DEDF88E3EFDF59
S113011086E0EDDF8FE0EBDF81E0E9DF8AE090E06D
S1130120D3CF08955E9A88B95F9A00005F9881E002
S113013090E0CACF0895813118F48158D8CF08953A
S11301408155D5CF08950F931F93CF93DF93182F25
S1130150EB01D6DF8881882351F001E0010F812F64
S1130160EADF8991DFDF102F88818111F6CFDF91DB
S1130170CF911F910F910895609300017093010135
S1130180809302019093030160931C0170931D01FD
S113019080931E0190931F0108958BE0809381004A
S11301A08DE790E0909389008093880082E08093AB
S11301B06F0010928500109284008091000190914C
S11301C00101A0910201B091030180931C0190935D
S11301D01D01A0931E01B0931F018FB780688FBFCC
S11301E008951F920F920FB60F9211248F939F932D
S11301F0AF93BF9380911C0190911D01A0911E01AA
S1130200B0911F010197A109B10980931C0190933A
S11302101D01A0931E01B0931F01892B8A2B8B2BE8
S113022099F481E080932001809100019091010173
S1130230A0910201B091030180931C0190931D01D0
S1130240A0931E01B0931F01BF91AF919F918F9115
S11302500F900FBE0F901F90189580E484B980EC26
S11302608CBD80E88FBF08951F920F920FB60F9236
S113027011248F938EB580931B01803421F481E087
S113028080931A0104C0803211F410921A018F91E4
S11302900F900FBE0F901F9018958FEF87B918B865
S11302A08AB91BB8DADF2FDF2BDF77DF64EF71E069
S11302B080E090E061DFF12C00E01DEC0F2EF9E20C
S11302C0EF2EF02D80911A01882319F000911B0163
S11302D002C0F0901B01019FD12D1124D695D69513
S11302E0D695F19EC12D1124C695C695C69564E098
S11302F071E081E028DF85E01EDF0E9D812D112451
S113030082958F70805D0EDF86E015DFD19F812D91
S11303101124869586958695880F982F990F990FA5
S1130320890F9D2F981B892F805DFCDE87E003DFFA
S1130330DD0F8D2F880F880FD80F802F8D1B805DC8
S1130340F1DE85E1F8DEFE9C812D112482958F700B
S1130350805DE8DE86E1EFDEC19F812D1124869564
S113036086958695880F982F990F990F890F9C2F42
S1130370981B892F805DD6DE87E1DDDECC0F8C2FC4
S1130380880F880FC80F8F2D8C1B805DCBDE80916A
S113039020018823E1F31092200194CFF894FFCF39
S11303A0010000004176673A2020202020202020F0
S10D03B0202020204375723A00005B
S9030000FC
