S01900006D6F683030385F6C6162375F70617274312E7372656323
S113000045C0000053C0000051C000004FC00000B4
S11300104DC000004BC0000049C0000047C00000B4
S113002045C0000043C0000041C000003FC00000C4
S11300303DC000003BC0000039C0000037C00000D4
S113004035C0000033C0000031C000002FC00000E4
S11300502DC000002BC0000029C0000027C00000F4
S113006025C0000023C0000021C000001FC0000004
S11300701DC000001BC0000019C0000017C0000014
S113008015C0000013C0000011C0000011241FBEE1
S1130090CFEFD0E4DEBFCDBF21E0A0E0B1E001C0EE
S11300A01D92A030B207E1F714D024C0A9CF80E498
S11300B084B980EC8CBD80E88FBF08958EBD0DB4EB
S11300C007FEFDCF0895EAE7F0E08081806E80832B
S11300D00895F9DFECDFC0E008E710E0C695C695A7
S11300E08C2F90E0F8019183808380819181C82FC7
S10B00F0E5DFF4CFF894FFCF23
S9030000FC
