:1000000045C0000053C0000051C000004FC00000B8
:100010004DC000004BC0000049C0000047C00000B8
:1000200045C0000043C0000041C000003FC00000C8
:100030003DC000003BC0000039C0000037C00000D8
:1000400035C0000033C0000031C000003CC00000DB
:100050002DC000002BC0000029C0000027C00000F8
:1000600025C0000023C0000021C000001FC0000008
:100070001DC000001BC0000019C0000017C0000018
:1000800015C0000013C0000011C0000011241FBEE5
:10009000CFEFD0E4DEBFCDBF21E0A0E0B1E001C0F2
:1000A0001D92A230B207E1F72DD03BC0A9CF80E46A
:1000B00084B980EC8CBD80E88FBF08958EBD0DB4EF
:1000C00007FEFDCF08951F920F920FB60F921124D5
:1000D0008F938EB580930101803421F481E0809369
:1000E000000104C0803211F4109200018F910F9032
:1000F0000FBE0F901F901895EAE7F0E08081806EA8
:100100008083089511B88FEF82B9F6DFD0DFC8E79A
:10011000D0E0288139819EB59031D9F7822FCEDF8A
:06012000F8CFF894FFCFB8
:00000001FF
